:400000000080002011000000B9060000B906000080B500AF024A034B1B68136000F07EFBBC760040FA46004010B5054C237833B9044B13B10448AFF300800123237010BD20
:400040004881FF1F00000000E4310000084B10B51BB108490848AFF300800848036803B910BD074B002BFBD0BDE81040184700BF000000004C81FF1FE4310000C880FF1FD8
:4000800000000000B0B598B004AF0023A7F84E300023A7F84C300023BB800123FB8000F029FD01F0C1F801F02BFD02F059F901F03FFC01F0D7FB01F0B7FC01F045FC62B66B
:4000C000494B00221A7000F02DFD484801F028F90023A7F84A30012002F0D6F800237B64414B1B78DBB2002BFAD072B600214A2001F020FF002002F01FF801214A2001F0DB
:4001000085FF012002F068F803463B6401F0DCFF02F088F902F09AF902F0EAF9002002F0B3F83B1D0221184602F0C4F902F06CF903461A462E4B1A80012002F0A5F82C4BC8
:400140001B889BB2C3F30C039AB2294B1A80284B1B889BB28E3BA7F84A30264B1B68264AA2FB0323DB08FB87224B1968224BA3FB0123DA0813469B0013445B00CA1A1346BD
:40018000BB87B7F84A301C4AA2FB0323DB08A7F84E30B7F84A20184BA3FB0213D9080B469B000B445B00D31AA7F84C30114B1C68FD8FBB8FB7F84E20B7F84C1007F108001F
:4001C000039102923A6C019200932B4622460B4902F0E4FB07F10803184601F0A1F862B6014B00221A707BE77481FF1FF03100007681FF1F7081FF1FCDCCCCCC00320000F5
:4002000080B582B000AF786039603A680021786802F0BBFB00BF0837BD4680BD80B584B000AFF860B9607A607A68B968F86802F0A1FB00BF1037BD4680BD00BF80B483B0EE
:4002400000AF0346FB71FEE780B487B000AF7860396000233B6100237B6127E07B699B007A6813441B68BB60BB68FB73BB6823F0FF03BB6014E03B695B003A6813441B782C
:400280001A46BB68134419463B695B003A6813445B780B703B6901333B61FB7B013BFB73FB7B002BE7D17B6901337B617B69202BD4D900BF1C37BD4680BC704780B582B093
:4002C00000AF494B40F2E7321A80484B1B221A70474B00221A80474B50221A70464B09221A80464B18221A70454B0E221A80454B18221A70444B4FF49C721A80434B182205
:400300001A70042242494348FFF788FF424B02221A704FF0402308221A70404B03221A703F4B404A1278D2B21A703F4B08221A803E4B41F251221A800023FB7019237B6047
:4003400014E0FB785B00DAB2394B1B78DBB203F00103DBB21343DBB203F00303FB704FF4F07002F021F97B68013B7B607B68002B02D0FB78032BE4D17B68002B02D10320DD
:40038000FFF75CFF2B4B4FF480721A80294B07221A70294B00221A70284B48221A70254B00221A70264B02221A70264B04221A70254A254B1B78DBB243F01F03DBB2137039
:4003C000224A224B1B78DBB243F00103DBB213701F4A1F4B1B78DBB263F07F03DBB2137000BF0837BD4680BD80400040824000408440004086400040884000408A40004089
:400400008C4000408E4000409040004092400040EC0A0048004100400043004000420040A146004008010049224200402042004025420040044000400640004008400040C4
:40044000014000400B400040A2430040A1430040A043004080B483B000AF0E4B1B78FB710D4AFB7903F00703DBB213700B4AFB791B09DBB213700A4B01221A70094B102239
:400480001A70094B44221A7000BF0C37BD4680BC704700BFCF0100496E5800406F5800400D510040005B00407658004080B483B000AF0346FB71FB79012B0ED8FB79094A32
:4004C00052F82330FA79074951F822201178FA790548825C0A43D2B21A7000BF0C37BD4680BC7047643200006C32000080B483B000AF0346FB71FB79012B10D8FB790A4A48
:4005000052F82330FA79084951F822201178FA790648825CD243D2B20A40D2B21A7000BF0C37BD4680BC7047643200006C32000080B586B000AF72B64C4A4C4B1B78DBB2FB
:4005400043F00403DBB213700023FB7513E0FA7D13465B0013445B00454A13443B613B691A683B699B889BB219461046FFF748FEFB7D0133FB75FB7D062BE8D90023FB7508
:400580001CE0FA7D13469B0013445B00394A1344FB60FB681B68BB60FB685B687B60FB681A7A5B7A1B0213437B807B881A467968B868FFF733FEFB7D0133FB75FB7D002B67
:4005C000DFD02D494FF09040FFF73EFE2B4B0A221A702B4A2A4B1B78DBB243F00203DBB21370284A274B1B78DBB243F00203DBB21370254A244B1B78DBB243F04003DBB2CA
:400600001370224A214B1B78DBB243F01003DBB2137008221E491F48FFF700FE0A221E491E48FFF7FBFD08221D491E48FFF7F6FD1D4A1D4B1B78DBB243F00803DBB21370FA
:400640001A4B60221A70FFF739FE184B80221A70174B01221A70FFF7FDFE0E220A491548FFF7DCFD00BF1837BD4680BDE8460040703200009C32000084000048835800408B
:400680000350014013500140A0430040C2430040D00A004802510040D80A0048C0510040E40A004812510040224300400048004004000840B043004080B500AF02F02EF9E8
:4006C00003461B680C2B00D1FEE7FEE780B584B000AF78600F4B1A687B6813441A460E4BD31A802B09DC0B4B1B68FB60094B1A687B681344074A136007E002F00FF90246EF
:400700000C2313604FF0FF33FB60FB6818461037BD4680BDCC80FF1FB881FF1F80B586B000AF224B7B61224B3B61204B7B6135E03B691B68FB603B695B68BB603B699B68CF
:400740003B6000237B600CE0FB681A68BB681A60BB680433BB60FB680433FB607B6804337B607A683B689A42EED13B69DB683B6000237B6008E0BB6800221A60BB68043372
:40078000BB607B6804337B607A683B689A42F2D13B6910333B617B69013B7B617B69002BC6D102F0C1F8FFF76DFCFEE7010000000033000080B582B000AF184B184A1A6068
:4007C000184A184B1B6843F40073136000237B600FE07B68032B04D8134A7B6852F8233000E0124B12497A6841F822307B6801337B607B682F2BECD90E4B1B78DAB20E4B13
:400800001A700E4B0A4A1A60FFF792FE0C4B00221A6000BF0837BD4680BD00BF0CED00E00004FA0514ED00E000000000B90600000080FF1FBC760040C480FF1F08ED00E0CE
:40084000C080FF1F80B582B002AF414B01221A70404B00221A70102000F070FE102000F053FF07211D2000F0D9FF3B4B04221A703A4B00221A703A4B00221A70394A394BC6
:400880001B78DBB243F01803DBB21370364B00221A70364B00221A70354B00221A70354B0A221A70344B00221A70344B00221A70334B5B221A70334B5E221A70324B0022FC
:4008C0001A70324B14221A700123009310234FF4004247F60271032000F098FB0223009310234FF4004249F2DA01002000F08EFB0323009310234FF4004249F2DA010020A6
:4009000000F084FB0423009310234FF4004249F2DA01002000F07AFB1D4A0D4B1B78DBB2013B1C499B000B449B7813701A4A084B1B78DBB2013B174931F823301380044B6A
:400940001B78DBB2184600F059F900BFBD4680BDD080FF1F7881FF1F96580040975800409E580040075B004093580040885B0040895B004080580040815800408358004040
:4009800088580040895800408D580040014E00400E4E00408081FF1F0C4E004080B582B000AF01F020FE0346FB71444B1B78BB71434A434B1B78DBB243F00103DBB2137043
:4009C0003F4A3F4B1B78DBB243F01003DBB213703C4A3C4B1B78DBB243F00103DBB21370384A384B1B78DBB243F01003DBB21370354A354B1B78DBB243F00203DBB2137018
:400A0000324A324B1B78DBB243F00203DBB213702F4A2F4B1B78DBB243F00303DBB21370032000F0BFFE284A274B1B78DBB223F00203DBB21370254A244B1B78DBB223F0EC
:400A40000203DBB21370234A224B1B78DBB243F00603DBB21370204B7A221A701F4A1F4B1B78DBB243F00103DBB213701C4A1C4B1B78DBB243F00103DBB21370194A194B55
:400A80001B78DBB243F00203DBB21370164A164B1B78DBB243F00203DBB21370134B4FF000521A60124B4FF000521A60FB79184601F09DFD00BF0837BD4680BDD080FF1FCB
:400AC000AA430040BA430040F8460040F9460040915800407758004082580040A1430040B1430040A2430040B243004080E200E000E100E080B500AF084B1B78002B09D1B9
:400B0000074B1B78DBB2002B01D1FFF79BFE034B01221A70FFF742FF00BF80BD7A81FF1F7B81FF1F80B400AF054A054B1B78DBB243F00103DBB2137000BFBD4680BC7047B8
:400B4000004E004080B483B000AF174B1B78DBB203F003037B717B79012B03D8134B1B88FB8011E0114B1B78DBB2FB80104B1B78DBB29BB21B029AB2FB881343FB807B7992
:400B8000032B01D10B4B1B780B4B1B78DBB2002B02D00A4B00221A70B7F9063018460C37BD4680BC704700BF144E0040104E0040114E0040124E00407981FF1F7881FF1FEE
:400BC00080B485B000AF78600A4B1B687A68D31A7B607B684FF47A7202FB03F2064B1B6892FBF3F3FB81B7F90E3018461437BD4680BC70477C81FF1F9C81FF1F80B582B072
:400C000000AF0346FB71C34B00221A70FB79012B66D1C14B38221A70C04B04221A70C04B06221A70BF4B00221A70BF4B00221A70BE4B3F221A70BE4B00221A70BD4B002218
:400C40001A70BD4B00221A70BC4B01221A70BC4B50221A70BB4B07221A70BB4B29221A70BA4B00221A70BA4B55221A70B94B5A221A70B94B00221A70B84B01221A70B84BC7
:400C800011221A70B74B19221A70B74B97221A70442000F073FAB54B58221A70B44B00221A70B44B05221A70B34B02221A70B34B00221A70B24B00221A70002000F06CFBD5
:400CC000B04B42F6AB121A600121052000F078FB0121252000F05AFCAB491D2000F076FDFB79022B66D18C4B38221A708B4B04221A708B4B06221A708A4B00221A708A4BA8
:400D000000221A70894B3F221A70894B00221A70884B00221A70884B00221A70874B01221A70874B50221A70864B27221A70864B2C221A70854B00221A70854B55221A70E3
:400D4000844B5A221A70844B05221A70834B01221A70834B11221A70824B19221A70824B97221A70442000F009FA804B58221A707F4B00221A707F4B05221A707E4B022272
:400D80001A707E4B00221A707D4B00221A70002000F002FB7B4B4FF47A421A600121052000F00EFB0121252000F0F0FB77491D2000F00CFDFB79032B66D1574B38221A709D
:400DC000564B04221A70564B06221A70554B00221A70554B00221A70544B3F221A70544B00221A70534B00221A70534B00221A70524B01221A70524B50221A70514B272286
:400E00001A70514B2C221A70504B00221A70504B55221A704F4B5A221A704F4B05221A704E4B01221A704E4B11221A704D4B19221A704D4B97221A70442000F09FF94B4B90
:400E400058221A704A4B00221A704A4B05221A70494B02221A70494B00221A70484B00221A70002000F098FA464B4FF47A421A600121052000F0A4FA0121252000F086FBCD
:400E800043491D2000F0A2FCFB79042B40F0A980214B38221A70214B04221A70204B06221A70204B00221A701F4B00221A701F4B3F221A701E4B00221A701E4B00221A70AA
:400EC0001D4B00221A701D4B01221A701C4B50221A701C4B27221A701B4B2C221A701B4B00221A701A4B55221A701A4B5A221A70194B05221A70194B01221A70184B11224F
:400F00001A70184B19221A70174B97221A70442040E000BF7981FF1F004E0040024E0040034E0040044E0040054E0040064E0040084E0040094E00400A4E0040144E004030
:400F4000845800408558004086580040875800408A5800408B5800408C5800408E5800408F580040905800409158004094580040955800409A5800409B5800409C58004002
:400F80009D5800409C81FF1FF9110000051200001112000000F0F2F8144B58221A70144B00221A70134B05221A70134B02221A70124B00221A70124B00221A70002000F0F8
:400FC000EBF9104B4FF47A421A600121052000F0F7F90121252000F0D9FA0B491D2000F0F5FB00BF0837BD4680BD00BF94580040955800409A5800409B5800409C58004088
:401000009D5800409C81FF1F1D12000090B587B000AF0446084611461A462346FB710346BB800B467B801346BB7197F82830002B00F08B8097F82830042B00F28680FB79DE
:40104000013B092B4AD801A252F823F075100000DD100000DD10000075100000DD100000DD1000008F100000A9100000DD100000C3100000BB790F2B04D9374B1B78DBB21B
:40108000FB752EE0354B1B78DBB2FB7529E0BB790F2B04D9324B1B78DBB2FB7521E0314B1B78DBB2FB751CE0BB790F2B04D92E4B1B78DBB2FB7514E02C4B1B78DBB2FB75E9
:4010C0000FE0BB790F2B04D9294B1B78DBB2FB7507E0284B1B78DBB2FB7502E00023FB7500BFBA8897F917305B0113443B617B883A6902FB03F3FB60FB68DB0BBB82BB797E
:401100000D2B12D8BA8ABB79C3F10E0342FA03F3BB8297F82830013BBA790132D1B2164A9B0013440A469A7007E097F82830013B114A9B0013440F229A7097F82830013B74
:401140000D49BA8A21F8232002E0002000F01EFB00BF1C37BD4690BD180100491C010049190100491D0100491A0100491E0100491B0100491F0100498081FF1F80B584B058
:4011800000AF0346FB7101F02EFA0346FB73174A164B1B78DBB243F00303DBB21370144A134B1B78DBB243F00303DBB21370114AFB791370032000F0F5FA0C4A0B4B1B7818
:4011C000DBB223F00303DBB21370094A084B1B78DBB223F00303DBB21370FB7B184601F006FA00BF1037BD4680BD00BFF8460040F94600409258004080B400AF00BFBD46B4
:4012000080BC704780B400AF00BFBD4680BC704780B400AF00BFBD4680BC704780B400AF00BFBD4680BC704780B500AF064B1B78002B04D100F00AF8034B01221A7000F04E
:4012400025F800BF80BD00BF9081FF1F80B400AF094B72221A70094B20221A70084B06221A70084B47221A70074B00221A7000BFBD4680BC704700BF8465004088640040E0
:401280002A6500403A6500408A65004080B582B000AF01F0A8F90346FB71114A104B1B78DBB243F02003DBB213700E4A0D4B1B78DBB243F01003DBB213700B4A0A4B1B7855
:4012C000DBB243F01003DBB2137000F045FAFB79184601F08CF900BF0837BD4680BD00BF94650040986400409A65004080B483B000AF0346FB7100BF074B1B78DBB203F0F4
:401300000403002BF8D1054AFB79137000BF0C37BD4680BC704700BF6A6500404964004080B584B000AF78600023FB810C4B1B78002B10D009E0FB897A6813441B7818469E
:40134000FFF7D4FFFB890133FB81FB897A6813441B78002BEFD100BF1037BD4680BD00BF9081FF1F80B582B000AF0023FB7106E0FB791846FFF7BAF8FB790133FB71FB7974
:40138000012BF5D9034BFF221A7000BF0837BD4680BD00BFD180FF1F80B582B000AF0346FB71FFF7DFFFFB791846FFF77FF8034AFB79137000BF0837BD4680BDD180FF1FFF
:4013C00080B584B000AF03460A46FB8013467B7100F0CEF80346FB7300F0A4F80346BB81FA88BB899A4200F08880464B1B78DBB203F00203FB72FB7B002B20D1BB89002B4D
:4014000002D0FB88002B1AD1BB89002B0BD13E4AFB8813803D4A3D4B1B78DBB223F04003DBB2137069E0394A384B1B78DBB243F04003DBB21370344AFB8813805DE0FB7A88
:40144000002B33D0324B00221A70324B02221A70314B00221A70314A304B1B78DBB203F07F03DBB21370294B1B78DBB203F00803002B02D0FB88002B18D1294ABB891380B7
:40148000234B07221A7000BF214B1B78DBB203F00103002BF8D11B4A1A4B1B78DBB223F00203DBB213701A4B00221A70154B1B78DBB203F00203002B13D0194AFB881380B3
:4014C000134A7B79002B01D0032300E00123137000BF0F4B1B78DBB203F00103002BF8D10BE0094AFB8813800649064B1B78DAB2FB7A1343DBB20B70FFE700BF1037BD46F9
:4015000080BD00BFA24300408440004086400040014000401040004014400040084000400240004080B400AF034B1B889BB21846BD4680BC704700BF8440004080B483B032
:4015400000AF0346FB710949084B1B78DBB25AB297F9073023F007035BB213435BB2DBB20B7000BF0C37BD4680BC70478640004080B400AF044B1B78DBB203F00703DBB200
:401580001846BD4680BC70478640004080B584B000AF03460A46FB8013467B7100F0CEF80346FB7300F0A4F80346BB81FA88BB899A4200F08880464B1B78DBB203F00103A0
:4015C000FB72FB7B002B20D1BB89002B02D0FB88002B1AD1BB89002B0BD13E4AFB8813803D4A3D4B1B78DBB223F04003DBB2137069E0394A384B1B78DBB243F04003DBB222
:401600001370344AFB8813805DE0FB7A002B33D0324B00221A70324B01221A70314B00221A70314A304B1B78DBB203F07F03DBB21370294B1B78DBB203F00803002B02D00E
:40164000FB88002B18D1294ABB891380234B07221A7000BF214B1B78DBB203F00103002BF8D11B4A1A4B1B78DBB223F00103DBB213701A4B00221A70154B1B78DBB203F09D
:401680000103002B13D0194AFB881380134A7B79002B01D0032300E00123137000BF0F4B1B78DBB203F00103002BF8D10BE0094AFB8813800649064B1B78DAB2FB7A1343A3
:4016C000DBB20B70FFE700BF1037BD4680BD00BFA14300400041004002410040014000401440004010400040084000400240004080B400AF034B1B889BB21846BD4680BC62
:40170000704700BF0041004080B483B000AF0346FB710949084B1B78DBB25AB297F9073023F007035BB213435BB2DBB20B7000BF0C37BD4680BC70470241004080B400AF5C
:40174000044B1B78DBB203F00703DBB21846BD4680BC70470241004080B400AF094A094B1B78DBB243F01003DBB21370064A064B1B78DBB243F01003DBB2137000BFBD46C0
:4017800080BC7047A2430040B243004080B483B000AF0346FB7101BE00BF0C37BD4680BC704700BF80B582B000AF0346FB80FB88054A127802FB03F3184600F0F5FE00BF72
:4017C0000837BD4680BD00BFDC80FF1F80B584B000AF03463960FB710F4B1B68FB60FB791F2B02D90020FFF7D1FFFB7903F01F0310339B00FA6813441B68BB60FB7903F0EF
:401800001F0310339B00FA6813443A681A60BB6818461037BD4680BD08ED00E080B582B000AF03460A46FB711346BB71BB79072B02D90020FFF7AAFFFB791F2B02D900209D
:40184000FFF7A4FFFB7903F01F0303F1604303F56443BA795201D2B21A7000BF0837BD4680BD00BF80B500AF00F056F8044800F023F8072000F032F800F042F800BF80BD9F
:401880008518000098B500AF72B6FFF75BF903461846FFF795F9034619B24FEAE172054B18CB5B1844EB0204024AC2E9003462B600BF98BD6881FF1F80B485B000AF786029
:4018C000054B1B68FB60FB6848337A681A6000BF1437BD4680BC704708ED00E080B483B000AF0346FB71054AFB795B01DBB2137000BF0C37BD4680BC704700BF02E400E034
:4019000080B400AF034B04221A6000BFBD4680BC704700BF00E100E080B400AF034B04221A6000BFBD4680BC704700BF80E100E080B400AF034B04221A6000BFBD4680BC4C
:40194000704700BF80E200E080B500AF00F060F8044800F02DF8072000F03CF800F04CF800BF80BD6919000098B500AF72B60D4BD3E9000142F210724FF0000300F03EFEC8
:4019800003460C461A46084B1A60064A4FF000034FF00004C2E90034044B01221A7062B600BF98BD6881FF1F7081FF1F7481FF1F80B485B000AF7860054B1B68FB60FB68D9
:4019C00044337A681A6000BF1437BD4680BC704708ED00E080B483B000AF0346FB71054AFB795B01DBB2137000BF0C37BD4680BC704700BF01E400E080B400AF034B022274
:401A00001A6000BFBD4680BC704700BF00E100E080B400AF034B02221A6000BFBD4680BC704700BF80E100E080B400AF034B02221A6000BFBD4680BC704700BF80E200E0EE
:401A400080B582B000AF1B4B00221A701A4B01221A7000F0C8FD0346FB71184A174B1B78DBB243F01003DBB21370FB79184600F0BEFD134B0F221A70124B08221A70124B84
:401A800001221A6007210020FFF7C8FE0F490020FFF79CFE0E4B10221A700E4B00221A700D4B00221A700D4B00221A7000BF0837BD4680BD7964004087640040976400409A
:401AC000256400403564004080E100E02D1B0000A081FF1FA681FF1FAE81FF1FA481FF1F80B400AF054A054B1B78DBB243F00203DBB2137000BFBD4680BC704779640040EB
:401B000080B500AF074B1B78002B04D1FFF798FF044B01221A70FFF7E3FF034B01221A6000BF80BD9281FF1F00E100E080B582B000AFA64B1B78FB71A54B1B78DBB203F099
:401B40004003DBB2002B00F0CD81FB7903F00103002B00F0A4819E4B1B78DBB2453B052B00F2998101A252F823F000BF851B0000CB1C0000971E0000971E0000851B00006C
:401B8000011E0000FB7923F02003FB71FB7903F00A03DBB2082B54D18D4B1B78DBB2452B42D18C4B1B78DBB2002B15D08A4A8B4B1B681B78DBB21370894B06221A70894BEB
:401BC000FF221A70884B00221A70884B01221A707F4B46221A7062E1854B1B78DBB203F00203002B0ED0834B1B78DBB243F00A03DAB2804B1A70764B60221A707E4B012283
:401C00001A604CE17D4A7D4B1B78DBB243F02003DBB21370724B52221A70724BFF221A70714B00221A703AE16D4B02221A706D4BFF221A706C4B00221A70654B4A221A7070
:401C40002DE1FB7903F00A03DBB20A2B39D1694B1B78DBB263F05F03DAB2664B1A70644B1B78DBB203F00203002B18D0584B1B78DBB203F00803002B01D0092300E00A23F6
:401C8000DAB25C4B1B78DBB21343DAB2594B1A704F4B60221A70584B01221A60FFE0574A564B1B78DBB243F02003DBB213704C4B52221A704B4BFF221A704B4B00221A701C
:401CC000EDE00020FFF762FDE9E0FB7903F00203002B4AD1454B1B78DAB23E4B1B78DBB29A421AD23C4A3D4B1B6840490978C9B20B441B78DBB21370394B06221A70394B45
:401D0000FF221A70384B00221A70384B1B78DBB20133DAB2354B1A70C1E0354B1B78DBB203F00203002B0ED0324B1B78DBB243F00A03DAB22F4B1A70254B60221A702E4BB8
:401D400001221A60ABE02D4A2C4B1B78DBB243F02003DBB21370224B52221A70214BFF221A70214B00221A7099E0214B1B78DBB203F00203002B0ED01E4B1B78DBB263F04B
:401D80006503DAB21B4B1A70114B60221A701A4B01221A6083E0194A184B1B78DBB243F02003DBB213700E4B52221A700D4BFF221A700D4B00221A700E4B1B78DBB263F0FC
:401DC0006F03DAB20B4B1A7069E000BF67640040A081FF1FA581FF1F04640040B081FF1F796400401464004054640040A481FF1FAC81FF1FA681FF1F80E100E0876400406C
:401E0000404B1B68404A1278D2B213443F4A1278D2B21A703C4B1B78DBB20133DAB23A4B1A70394B1B78DAB2394B1B78DBB29A4209D2384B02221A70374BFF221A70374B30
:401E400000221A702BE0364B1B78DBB203F00203002B0ED0334B1B78DBB243F00903DAB2304B1A70304B60221A70304B01221A6015E02F4A2E4B1B78DBB243F02003DBB212
:401E80001370244B12221A70234BFF221A70234B00221A7003E00020FFF778FC00BFFB7903F02003002B28D01F4B1B78DBB203F00803002B01D0012300E00223DAB2194BC9
:401EC0001B78DBB21343DAB2164B1A70184A184B1B78DBB223F02003DBB21370124B10221A700AE0104B1B78DBB203F01003DBB2002B02D10C4B10221A7000BF0837BD46A7
:401F000080BD00BFA881FF1FAE81FF1F04640040AD81FF1F796400401464004054640040AC81FF1FA681FF1FA081FF1F80E100E08764004080B485B000AF03460A46FB71F8
:401F40001346BB710223FB73294B1B78DBB2102B47D1284B1B78DBB203F01003002B3ED1254B01221A60FB795B00FB71BB79002B07D0FB7943F00103FB711D4B49221A709D
:401F800002E01B4B45221A701C4AFB7913701C4B82221A701B4BFF221A701B4B00221A7000BF184B1B78DBB2002BFAD100BF114B1B78DBB203F00103002BF8D00D4B1B788B
:401FC000DBB203F00A03DBB20A2B05D1084B10221A700323FB7304E00023FB7301E00123FB73FB7B18461437BD4680BC704700BFA081FF1F6764004080E100E0046400402A
:4020000079640040146400405464004080B485B000AF03460A46FB711346BB710223FB73234B1B78DBB203F00403002B3AD0FB795B00FB71BB79002B07D0FB7943F00103C5
:40204000FB711C4B49221A7002E01A4B45221A70194AFB791370194B32221A70184BFF221A70184B00221A7000BF154B1B78DBB2002BFAD100BF0E4B1B78DBB203F0010343
:40208000002BF8D00A4B1B78DBB203F00A03DBB20A2B05D1074B10221A700323FB7301E00023FB73FB7B18461437BD4680BC704767640040A081FF1F0464004079640040E8
:4020C000146400405464004080B483B000AF0223FB71144B1B78DBB203F00403002B1BD0114B52221A70114BFF221A70104B00221A7000BF0D4B1B78DBB2002BFAD10D4B0D
:4021000010221A7000BF074B1B78DBB203F02103002BF8D00023FB71FB7918460C37BD4680BC704767640040796400401464004054640040A081FF1F80B485B000AF034696
:40214000FB710223FB731E4B1B78DBB203F00403002B2ED01B4AFB7913701B4B06221A701A4BFF221A701A4B00221A7000BF174B1B78DBB2002BFAD1164B46221A7000BFD6
:402180000F4B1B78DBB203F00103002BF8D00C4B1B78DBB203F00203002B05D10D4B60221A700023FB7304E00A4B60221A700323FB73FB7B18461437BD4680BC704700BFA9
:4021C0006764004004640040796400401464004054640040A081FF1F80B485B000AF0346FB710023FB73224B1B78DBB203F00403002B37D01F4B1B78DBB2492B11D11E4BC0
:4022000002221A701D4BFF221A701D4B00221A7000BF1A4B1B78DBB2002BFAD1154B4A221A7000BF124B1B78DBB203F00103002BF8D0144B1B78FB73FB79002B0FD00E4BDC
:4022400002221A700D4BFF221A700D4B00221A7000BF0A4B1B78DBB2002BFAD102E0054B60221A70FB7B18461437BD4680BC704767640040A081FF1F79640040146400400D
:40228000546400400464004080B485B000AF0346FB710B4B1B78DBB223F01003FB730849FB791B01DBB203F01003DAB2FB7B1343DBB20B7000BF1437BD4680BC704700BF14
:4022C000C051004080B500AF084B1D221A7000F00FF900F063F800F06FF8054B00221A70044B30221A7000BF80BD00BF82640040836400408765004080B582B000AF00F092
:4023000072F90346FB71134A124B1B78DBB243F02003DBB21370104A0F4B1B78DBB243F01003DBB213700D4A0C4B1B78DBB243F01003DBB21370FB79184600F058F900F0EC
:4023400019F900F01FF800F023F800BF0837BD4680BD00BF92640040936400409765004080B500AF064B1B78002B04D1FFF7AAFF034B01221A70FFF7BFFF00BF80BD00BFC2
:402380009381FF1F80B400AF00BFBD4680BC704780B400AF00BFBD4680BC704780B483B000AF044B1B78FB71FB7918460C37BD4680BC70476364004080B483B000AF044BE0
:4023C0001B78FB71FB7918460C37BD4680BC70476765004080B483B000AF0346FB8000BF074B1B78DBB203F00403002BF8D0054AFB88138000BF0C37BD4680BC704700BFB3
:40240000636400404664004080B483B000AF044B1B88FB80FB8818460C37BD4680BC70475664004080B400AF01E0064B1B88064B1B78DBB203F02003002BF6D100BFBD4621
:4024400080BC7047566400406765004080B582B000AF00F0C8F80346FB71144A134B1B78DBB243F00103DBB21370104A0F4B1B78DBB223F00103DBB213700D4A0C4B1B7889
:40248000DBB243F00103DBB21370094A084B1B78DBB223F00103DBB21370FB79184600F0A6F800BF0837BD4680BD00BF966400409764004080B584B000AF78600B46FB70DD
:4024C0000023FB730DE0FB7B5B007A6813441B881846FFF77FFFFB7B0133FB73FB78013BFB70FB78002BEED100BF1037BD4680BD80B582B000AF01E01A4B1B881A4B1B7813
:40250000DBB203F02003002BF6D100F06CF80346FB71164A154B1B78DBB243F00103DBB21370124A114B1B78DBB223F00103DBB213700F4A0E4B1B78DBB243F00103DBB241
:4025400013700B4A0A4B1B78DBB223F00103DBB21370FB79184600F04AF800BF0837BD4680BD00BF5664004067650040966400409764004080B400AF094A094B1B78DBB2C1
:4025800043F00403DBB21370064A064B1B78DBB243F00403DBB2137000BFBD4680BC7047A2430040B2430040142816D902B4012114381049097811F0C001890904B40E4A2A
:4025C000515C04BC00BF00BF00BF8841FDD500BF00BF02BC704700BF00BF70F10400FCD570470B050709EFF3108072B6704780F31088704700480040E225000053B94AB967
:40260000002908BF00281CBF4FF0FF314FF0FF3000F082B9ADF1080C6DE904CE00F006F8DDF804E0DDE9022304B070472DE9F04F8C460C460546099E002B4FD18A421746E9
:402640006BD9B2FA82FEBEF1000F0BD0CEF1200520FA05F501FA0EF345EA030C02FA0EF700FA0EF5390CBCFBF1F0BAB201FB10C300FB02F84FEA154C4CEA0344A04509D936
:40268000E41900F1FF3380F02881A04540F2258102383C44C8EB0404B4FBF1F301FB134C03FB02F2ACB244EA0C418A4209D9C91903F1FF3480F00F818A4240F20C81023B77
:4026C00039448A1A43EA00400021002E63D022FA0EF2002386E80C00BDE8F08F8B4207D9002E56D0002186E811000846BDE8F08FB3FA83F1002940F09380A34202D38242CF
:4027000000F2FE80851A64EB03039C460120002E41D086E82010BDE8F08F12B90127B7FBF2F7B7FA87FEBEF1000F36D1E41B4FEA17481FFA87F90121B4FBF8F308FB134462
:4027400009FB03F24FEA154C4CEA0444A24207D9E41903F1FF3002D2A24200F2D3800346A41AB4FBF8F008FB104809FB00F9ACB244EA0842914507D9D21900F1FF3402D202
:40278000914500F2BA802046C9EB020240EA03409BE731463046BDE8F08F07FA0EF7CEF1200C24FA0CF34FEA1748B3FBF8FA1FFA87F908FB1A3520FA0CFC04FA0EF40AFBA1
:4027C00009FB4CEA040C4FEA1C4242EA05439B4500FA0EF50AD9DB190AF1FF3280F08B809B4540F28880AAF1020A3B44CBEB0303B3FBF8F008FB103300FB09F41FFA8CFCB8
:402800004CEA03439C4207D9DB1900F1FF326ED29C426CD902383B441C1B40EA0A418BE7C1F1200E8B4022FA0EFC4CEA030C24FA0EF74FEA1C49B7FBF9FA1FFA8CF309FBF6
:402840001A7720FA0EF88C400AFB03F548EA04044FEA144848EA0747BD4202FA01F200FA01FB09D917EB0C070AF1FF3041D2BD423FD9AAF1020A67447F1BB7FBF9F509FBD0
:40288000157705FB03F3A4B244EA0747BB4208D917EB0C0705F1FF3027D2BB4225D9023D674445EA0A40A0FB0289FF1A4F4545464C4614D329D066B3BBEB050367EB040761
:4028C00007FA0EFECB40CF404EEA030386E888000021BDE8F08F2346F3E61846DAE6B8EB020569EB0C040138E5E70546D9E7104692E78246C0E7924678E702383A4443E763
:40290000084604E7023B3C442AE7C345E7D33C46D1E73146BDE8F08F704700BF014B1868704700BF4481FF1F0E4B70B51E460E4C0025E41AA410A54204D056F8253098470E
:402940000135F8E700F0CAFC084B094C1E46E41AA4100025A54204D056F8253098470135F8E770BDE8320000E8320000E8320000F032000010B5431E0A44914204D011F896
:40298000014B03F8014FF8E710BD03460244934202D003F8011BFAE7704700000EB400B54FF402719CB0ADF814106FF00041049107914FF6FF711DAB02900690084853F8A0
:4029C000042BADF81610006802A9019300F064F8029B00221A701CB05DF804EB03B070474481FF1F2DE9F0478E6882469E420C46914698463ED88A8912F4906F3AD025688D
:402A0000096902236F1A656905EB450595FBF3F57B1C43449D4238BF1D4653050FD5294600F040FB064698B13A462169FFF7A2FFA38923F4906343F08003A38113E02A4620
:402A400000F08EFB064670B92169504600F0DEFA0C23CAF80030A3894FF0FF3043F04003A381BDE8F08726613E44266046466561ED1BA560464528BF464649463246206894
:402A800000F0A8FAA36800209B1BA36023681E442660BDE8F08700002DE9F04F9DB003938B8980461C060D4616460DD50B695BB9402100F0F7FA2860286118B90C23C8F8B1
:402AC0000030CDE040236B610023099320238DF82930DFF89CB130238DF82A3037463C4614F8013B1BB9B7EB060910D003E0252BF9D02746F3E74B46324629464046FFF7B1
:402B000071FF013000F0A780099B4B4409933B78002B00F0A08000234FF0FF3204930793059206938DF853301A930126052221784E4800F041FA671C049B38B14B4A3C46AD
:402B4000801A06FA00F018430490EFE7D90644BF20228DF853201A0744BF2B228DF8532022782A2A03D0079A00210A200BE0039A111D12680391002A10DA524243F0020033
:402B8000079204900BE027463B780134303B092B03D800FB02320121F5E701B107923B782E2B1ED17B782A2B0AD1039B02371A1D1B680392002BB8BF4FF0FF33059310E0D7
:402BC000002319460593781C0A2407463A780130303A092A03D804FB01210123F5E703B1059103223978224800F0E6F940B14023CBEB000003FA00F0049B0137184304901A
:402C0000397806221B487E1C8DF8281000F0D4F988B1194B33B9039B073323F007030833039314E003AB00932A46144B04A94046AFF3008007E003AB00932A460F4B04A9FD
:402C4000404600F093F8B0F1FF3F824603D0099B5344099342E7AB895B0601D4099801E04FF0FF301DB0BDE8F08F00BFA8320000AE320000B232000000000000E529000023
:402C80002DE9F04791461F460A698B6806469342B8BF1346C9F8003091F843200C46DDF8208012B10133C9F800302368990642BFD9F800300233C9F80030256815F00605B9
:402CC00010D104F1190A07E00123524639463046C04701301AD00135E368D9F800209B1A9D42F1DB94F843302268003318BF012392060FD5E118302081F843005A1C94F815
:402D000045102244023382F8431003E04FF0FF30BDE8F08704F1430239463046C0470130F4D02268D9F80050E36802F00602042A08BF5D1B2269A3680CBF25EAE5750025F2
:402D40009342C4BF9B1AED184FF000091A344D4509D00123224639463046C0470130D5D009F10109F3E70020BDE8F0872DE9F04317460A7E85B06E2A984606460C460C9BAA
:402D800001F1430E00F0AE8011D8632A22D009D8002A00F0BB80582A40F0CA8081F84520834955E0642A1ED0692A1CD0C0E0732A00F0B08009D86F2A2ED0702A40F0B88067
:402DC0000A6842F020020A603EE0752A24D0782A3AD0ADE01A6801F14205111D1960136884F84230A8E021681A6811F0800F02D0111D196008E011F0400F02F104011960A9
:402E000002D0B2F9003000E01368002B3CDA2D225B4284F8432037E021681A6811F0800F02D0111D196007E011F0400F02F10401196001D0138800E01368227E5C496F2A06
:402E400014BF0A2208221BE078225A4984F845202268186812F0800F00F104051D6003D1550601D5038800E00368D00744BF42F0200222601BB9226822F02002226010222D
:402E8000002084F8430001E049490A226568002DA56008DB206820F0040020602BB9002D7DD175460CE0002B79D07546B3FBF2F002FB1033CB5C05F8013D03460028F5D1F8
:402EC000082A0BD12368DA0708D5236962689A42DEBF302305F8013C05F1FF35C5EB0E0323612EE008681A6810F0800F496903D0101D1860136808E010F0400F02F104004E
:402F00001860136801D0198000E0196000232361754616E01A68111D1960156800216268284600F049F808B1401B6060636804E004F1420584F8422001232361002384F86F
:402F40004330CDF800803B4603AA21463046FFF797FE013002D14FF0FF3026E023692A4639463046C0470130F5D023689B0710D5002504F1190907E001234A4639463046BF
:402F8000C0470130E7D00135E368039A9B1A9D42F2DBE068039B9842B8BF184605E00B7804F1420584F842308AE705B0BDE8F083B9320000CA32000010B5C9B202449042FF
:402FC000034605D01C7801308C42F8D1184610BD002010BD884210B501EB020301D8421E0BE09842FBD28118D21AD34204D013F8014D01F8014DF8E710BD994204D011F882
:40300000014B02F8014FF8E710BD000038B50546002944D051F8043C0C1F002BB8BFE41800F0D4F81E4A1368114613B96360146030E0A3420DD92268A018834201BF18686C
:403040005B681218226063600C6023E0A24203D813465A68002AF9D118681918A1420BD12168014458188242196013D110685268014419605A600DE002D90C232B6009E0FD
:4030800021686018824201BF106852680918216062605C602846BDE8384000F098B838BD9881FF1F70B5CD1C25F0030508350C2D38BF0C25002D064601DBA94202D90C232F
:4030C000336046E000F082F8234B1C681A462146A1B10B685B1B0ED40B2B03D90B60CC18CD501EE08C420BBF63684B681360636018BF0C4615E00C464968E9E7174C236830
:403100001BB9304600F052F820602946304600F04DF8431C18D0C41C24F00304A0420DD12560304600F053F804F10B00231D20F00700C31A0ED05A42E25070BD211A30467B
:4031400000F034F80130EBD10C233360304600F03EF8002070BD00BF9881FF1F9481FF1FF8B5074615460E4621B91146BDE8F840FFF798BF1AB9FFF749FF2846F8BD00F04A
:4031800027F885420ED929463846FFF78BFF044650B131462A46FFF7EDFB31463846FFF735FF01E03046F8BD2046F8BD38B5064C0023054608462360FDF788FA431C02D159
:4031C000236803B12B6038BDB481FF1F7047704751F8040C0028BEBF091851F8043CC018043870470000000044F4FF7F01000000434F4D20506F7274204F70656E0D0A00B8
:403200007B0A22566F6C74616765205B6D565D22203A20256C752C0D0A202254656D7065726174757265205B435D22203A202568752E2568752C200D0A2022493243205BFE
:40324000435D22203A2025692C0D0A2022535049205B435D223A25692E25690D0A7D0D0A00000000035B00402443004040000000205100405000F05100401000000001404F
:40328000001000140140000800400140000A004C01400002005001402000000060520040C80A004806004300232D302B2000686C4C0065666745464700303132333435362D
:4032C00037383941424344454600303132333435363738396162636465660000F8B500BFF8BC08BC9E4670474D000000B5070000F8B500BFF8BC08BC9E46704729000000FF
:4033000010330000C880FF1F800000007000000000000000B881FF1F01FF000000366E01C05D0000180000000000E02E0000000000000000000000000000000000000000B5
:40334000000000000000000000000000A632000000000000000000000000000000000000000000000000000000000000000000000000000000000000000000000000000075
:40338000000000000000000000000000E480FF1F0000000000000000000000000000000000000000000000000000000000000000000000000000000000000000000000008B
:4033C00000000000000000000000000000000000000000000000000000000000000000000000000000000000000000000000000000000000000000000000000000000000CD
:40340000000000000000000000000000000000000000000000000000000000000000000000000000000000000000000000000000000000000000000000000000000000008C
:40344000000000000000000000000000000000000000000000000000000000000000000000000000000000000000000000000000000000000000000000000000000000004C
:40348000000000000000000000000000000000000000000000000000000000000000000000000000000000000000000000000000000000000000000000000000000000000C
:020000040003F7
:0200000480007A
:4000000005640040026500405102014038030140730401404405014070060140570701405708014040090140070B0140030D014051140140571501405A1601404A17014054
:400040001B190140741A0140531B01400440014002410140074201400743014002440140024501400246014002470140044801400D490140044C01400C4D01400750014066
:40008000015101402404250F3508821D883884728A0F04D80CD00E08102012D01426164118241A801CD820D8240428D82C112E2230F03207340839083A0A3E103F0456023B
:4000C0005724580459045B045C025D205F018060848485FC8703880189028B988C048D138E808F649007919892389302940A95029610980499989B029C569E09A084A19A7B
:40010000A484A538A7C0A880A921AA04ABD8AD9AAE80B008B27FB30FB480B5E0B602B713B808BB28BE51D409D804D904DB04DC22DD20DF01001002800311040807010824DD
:4001400009280A810D080E820F0411101221130214101580171618111A401B101C241E801F14216822482720282429802B80331D39903B0C3C203D20581059095A40600145
:4001800066206C046D106E026F917580770283208A08C0AFC2FFC4FFCA0FCC07CE0ED60FD828E0010101047105E206080804095D0A010BA20C250D0D1001120E1302142518
:4001C0001708187119401A021B1D1E101FFF200421922221236024052504262027E029012A402D3D2FC2300F33FF344036303A023F044024440145B0460D480649FF4A7F19
:400200004BFF4C424DA04E70500C580459045A045C035D035F0161096240630964306509859089278B408D038F049590960399019A029B0E9E03A106A301A502A705A98176
:40024000AB08AC01AD27AF40B180B310B403B50FB770B98ABB20BF44C025C502C705C811C9FFCAFFCBFFCC42CDA0CE70D008D110D804D904DA04DC32DD03DF01E148E240D6
:40028000E348E480E548E680E74800040180020408800A560D080E091064158019011A4A1B201E08202026122765284029802A1C2C402D802E082F04302432043342361044
:4002C0003708380439183A403B093D903E103F044206430147204B024C014F04524054088D019180920193209D089E21A118A310A680A708A804A901AA21B010B201B64034
:40030000C007C2EFC48ECAFFCC6FCE7FD02DD210E0100340053F09500B021140130815801B201D041F082140231825402714290F2D502F01333F37C039883F4040324105E0
:400340004260440449FF4AFF4BFF4C024E704F08500459045A045C305D025F0162C0644065016610671168C069016B116C406D016E406F0180038220840188018C4F8D01FF
:400380009040920B9440961498039C489E02A042A209A302A41FAA01AC90AE0BB040B102B21FB301B4E0B822BE11C032C101C260C404C50EC6FBC7DCC83DC97FCAFFCBFF84
:4003C000CC23CEE0CF08D004D420D604D804D904DA04DB04DC33DD32DF01E2C0E440E501E610E711E8C0E901EB11EC40ED01EE40EF010181025409400A180B80100411041C
:40040000120213021412160117081A141B012105240226082A022C282D802F4034103604374238803C043D053E1040084148428044084519468049084B304D404F1051202C
:4004400052815308588059015A205B046112630279C085028A108B0290049180920893229402950896149701988099019A409B449C409D889E3B9F08A018A119A202A33046
:40048000A420A540A680A70AB604C00FC20FC40FCAF1CCF0CEE8D0EFD234D60FD80DEA400118055C07A1080409040D100E011201130415DC1602172219E71B18238325FFD9
:4004C00026022908312032013340340435983602371F39023B803E543F045418580459045B045C405D405F018149839686208C0C8E71901092AC94DC95E0962299029A035E
:400500009B0D9C099D339ED09F4CA414A810AA40AD55AFAAB0E0B3F0B41FB50FB908BA02BB20C052C104C5EBC70CC813C9FFCAFFCBFFCEF0CF44D00CD2F6D804D904DA04D2
:40054000DB04DC24DD34DF01E6C0EA40EB02004003200510060109080A0A0B800D020F2010281708184019101A081D401E081F04212022082582272929802C442F103120D6
:400580003208334035043602371039013C043E203F8140404110432048204A804B8050045F026540670869086B04725582048A05910199809B40C0C5C23FC426CAE8CCEE26
:4005C000CEF1D005D208D680D830E404E6A0910199809B40B101B740E810EC808980E001E480001C011002220307040605FF083209010A080C220D03102A11081210130754
:40060000141815011606180119031C041D221F05202221C022182307243F2501293A2A402B042C012D052E1E2F783180337F341F3660382039023F045602571358045904A9
:400640005B045C335D405F018201888089018A568B0A8C0E8E3090409213950197029B109C469EA9A02AA254A4FFA833AA0CAD04B104B303B508B6FFB710BF01D804D90473
:40068000DC33DF010280032A058006400704080809020A080B020D020E021050120213101448150819801A081E021F4022022310240425412604288829802A042D403044AC
:4006C00031023240332135A0368839093A503E2045404602580168216A207080710873088101823084018520870888208A0C8C808D088E018F089149928093029404978005
:40070000989D9A549B059DA09E02A208A322A604AA05AB01AE08AF02C0DFC29FC47FCA1FCC6FCE2FD601E008E280E40DE680E820EA0500010206050F061307800B400C1245
:400740000E010F341308170F1A131B0F1D0F1F102001221A23082401260427202A332B122F113007322033803410350F360837703A023B803E103F10580459045C335F0157
:4007800080CC821384028579870489088AB58B238D088E048F10901A91039260931094A995409654972B98FF99019B069C4D9D289E929F53A0A5A10BA24AA310A404A78073
:4007C000A902AA02AB01AD30AE01AF03B2FFB507B7F8BA80BB20BE04D440D804D904DB04DC34DD20DF010101032E0545081809400A500F08121513021410150A17201908FE
:400800001A021D552250230225402729284029A82C502D912E502F403250330934803608376239183A403C243D803F0860026120632083488420854086018D40910A9210DB
:4008400093029620978198079A509B409C409D909E0E9F0AA010A120A208A332A420A540A604AC05B220B440C0BFC24FC47FCAFFCCFFCE7ED80EE402EA0A860887108A086F
:400880008D028E809048925094049520960297A19B099C449E219F12A288A408A508A602A750AD04AF20B120B584B704E240EE9007100C730D110E040F0E1073120C130C26
:4008C000142A150C164417131B131E082480261528032A042B082D112F06300F330F343036C0371038A03A023B083E103F404002470449FF4A074BFF4C404D204EF04F05A2
:4009000050085401580459045A045B045C445D445F01604061A862406320810C85C389828D08910C93E3944495049631980199E39A0E9B0C9C809FE3A0E7A10FA3E0A422E3
:40094000A5EFA651A8E7A941AB10B080B110B260B30FB407B52CB618B7C0BB28BE40C064C102C203C401C6C0C7E0C828C9FFCAFFCBFFCC62CDA0CEF0CF41D00CD804D9044A
:40098000DA04DC44DD04DF01E640E702E910EA30EB10ED10EE10EF12004009080A420B800E180F021020120413201408150816801A461B021C081D821E182108224024048F
:4009C000260A27122B0A2C802E283020310832013444371138483A043C083E103F81420444404582460847084E085028511053085601571059065A805B20808C8104840488
:400A0000870189048AA08F419048940495209602978199029A089B099C449E219F12A408A508A602A750AA50C001C2EDC476CAECCCF7CEFAD0F4D220D60FE470E82030207D
:400A400032083680CC70A420A688074053808F40A420A688C020D42012088420A420A688B780C440E2407D20DE018110A5104410D00181089C1021012680A680C8601080DA
:400A8000150470027401808085048803B101C430DC80DE20E020E4408A2099089C10E401108072207508888099089A20B010C408DC01DE04E601E804001C08040A0C0C1C9C
:400AC000101C1A1C1C10002F82940000430000000000000000000100830048949700970000000000000B0B00000000002500180100000000000000000000000000000000FE
:400B000000000000000000000000000000000000000000000000000000000000000000000000000000000000000000000000000000000000000000000000000000000000B5
:400B40000000000000000000000000000000000000000000000000000000000000000000000000000000000000000000000000000000000000000000000000000000000075
:400B80000000000000000000000000000000000000000000000000000000000000000000000000000000000000000000000000000000000000000000000000000000000035
:400BC00000000000000000000000000000000000000000000000000000000000000000000000000000000000000000000000000000000000000000000000000000000000F5
:0200000490006A
:0400000000004005B7
:0200000490105A
:04000000BC90ACAF55
:0200000490303A
:020000008A492B
:0200000490402A
:4000000000000000000000000000000000000000000000000000000000000000000000000000000000000000000000000000000000000000000000000000000000000000C0
:400040000000000000000000000000000000000000000000000000000000000000000000000000000000000000000000000000000000000000000000000000000000000080
:400080000000000000000000000000000000000000000000000000000000000000000000000000000000000000000000000000000000000000000000000000000000000040
:4000C0000000000000000000000000000000000000000000000000000000000000000000000000000000000000000000000000000000000000000000000000000000000000
:0200000490501A
:0C00000000012E16106900012E2C9AB28F
:00000001FF